{
  "contractName": "Election",
  "abi": [
    {
      "inputs": [],
      "stateMutability": "nonpayable",
      "type": "constructor"
    },
    {
      "inputs": [],
      "name": "candidateCount",
      "outputs": [
        {
          "internalType": "uint256",
          "name": "",
          "type": "uint256"
        }
      ],
      "stateMutability": "view",
      "type": "function",
      "constant": true
    },
    {
      "inputs": [
        {
          "internalType": "uint256",
          "name": "",
          "type": "uint256"
        }
      ],
      "name": "candidateList",
      "outputs": [
        {
          "internalType": "address",
          "name": "",
          "type": "address"
        }
      ],
      "stateMutability": "view",
      "type": "function",
      "constant": true
    },
    {
      "inputs": [
        {
          "internalType": "address",
          "name": "",
          "type": "address"
        }
      ],
      "name": "candidates",
      "outputs": [
        {
          "internalType": "uint256",
          "name": "id",
          "type": "uint256"
        },
        {
          "internalType": "string",
          "name": "name",
          "type": "string"
        },
        {
          "internalType": "address",
          "name": "account",
          "type": "address"
        }
      ],
      "stateMutability": "view",
      "type": "function",
      "constant": true
    },
    {
      "inputs": [
        {
          "internalType": "uint256",
          "name": "",
          "type": "uint256"
        }
      ],
      "name": "voterList",
      "outputs": [
        {
          "internalType": "address",
          "name": "",
          "type": "address"
        }
      ],
      "stateMutability": "view",
      "type": "function",
      "constant": true
    },
    {
      "inputs": [],
      "name": "votercount",
      "outputs": [
        {
          "internalType": "uint256",
          "name": "",
          "type": "uint256"
        }
      ],
      "stateMutability": "view",
      "type": "function",
      "constant": true
    },
    {
      "inputs": [
        {
          "internalType": "address",
          "name": "",
          "type": "address"
        }
      ],
      "name": "voters",
      "outputs": [
        {
          "internalType": "uint256",
          "name": "id",
          "type": "uint256"
        },
        {
          "internalType": "string",
          "name": "name",
          "type": "string"
        },
        {
          "internalType": "address",
          "name": "account",
          "type": "address"
        },
        {
          "internalType": "bool",
          "name": "isvoted",
          "type": "bool"
        }
      ],
      "stateMutability": "view",
      "type": "function",
      "constant": true
    },
    {
      "inputs": [
        {
          "internalType": "string",
          "name": "name",
          "type": "string"
        }
      ],
      "name": "registerVote",
      "outputs": [],
      "stateMutability": "nonpayable",
      "type": "function"
    }
  ],
  "bytecode": "0x608060405234801561001057600080fd5b50336000806101000a81548173ffffffffffffffffffffffffffffffffffffffff021916908373ffffffffffffffffffffffffffffffffffffffff160217905550610b2c806100606000396000f3fe608060405234801561001057600080fd5b506004361061007d5760003560e01c8063a3ec138d1161005b578063a3ec138d14610102578063a9a981a314610135578063b13c744b14610153578063eeb76199146101835761007d565b806328ec10181461008257806350e2e8af146100a05780638ab66a90146100d0575b600080fd5b61008a61019f565b6040516100979190610626565b60405180910390f35b6100ba60048036038101906100b59190610681565b6101a5565b6040516100c791906106ef565b60405180910390f35b6100ea60048036038101906100e59190610736565b6101e4565b6040516100f9939291906107fc565b60405180910390f35b61011c60048036038101906101179190610736565b6102b6565b60405161012c9493929190610855565b60405180910390f35b61013d61039b565b60405161014a9190610626565b60405180910390f35b61016d60048036038101906101689190610681565b6103a1565b60405161017a91906106ef565b60405180910390f35b61019d600480360381019061019891906109d6565b6103e0565b005b60015481565b600281815481106101b557600080fd5b906000526020600020016000915054906101000a900473ffffffffffffffffffffffffffffffffffffffff1681565b600660205280600052604060002060009150905080600001549080600101805461020d90610a4e565b80601f016020809104026020016040519081016040528092919081815260200182805461023990610a4e565b80156102865780601f1061025b57610100808354040283529160200191610286565b820191906000526020600020905b81548152906001019060200180831161026957829003601f168201915b5050505050908060020160009054906101000a900473ffffffffffffffffffffffffffffffffffffffff16905083565b60036020528060005260406000206000915090508060000154908060010180546102df90610a4e565b80601f016020809104026020016040519081016040528092919081815260200182805461030b90610a4e565b80156103585780601f1061032d57610100808354040283529160200191610358565b820191906000526020600020905b81548152906001019060200180831161033b57829003601f168201915b5050505050908060020160009054906101000a900473ffffffffffffffffffffffffffffffffffffffff16908060020160149054906101000a900460ff16905084565b60045481565b600581815481106103b157600080fd5b906000526020600020016000915054906101000a900473ffffffffffffffffffffffffffffffffffffffff1681565b600160008154809291906103f390610aae565b9190505550604051806080016040528060015481526020018281526020013373ffffffffffffffffffffffffffffffffffffffff16815260200160001515815250600360003373ffffffffffffffffffffffffffffffffffffffff1673ffffffffffffffffffffffffffffffffffffffff16815260200190815260200160002060008201518160000155602082015181600101908051906020019061049992919061056a565b5060408201518160020160006101000a81548173ffffffffffffffffffffffffffffffffffffffff021916908373ffffffffffffffffffffffffffffffffffffffff16021790555060608201518160020160146101000a81548160ff0219169083151502179055509050506002339080600181540180825580915050600190039060005260206000200160009091909190916101000a81548173ffffffffffffffffffffffffffffffffffffffff021916908373ffffffffffffffffffffffffffffffffffffffff16021790555050565b82805461057690610a4e565b90600052602060002090601f01602090048101928261059857600085556105df565b82601f106105b157805160ff19168380011785556105df565b828001600101855582156105df579182015b828111156105de5782518255916020019190600101906105c3565b5b5090506105ec91906105f0565b5090565b5b808211156106095760008160009055506001016105f1565b5090565b6000819050919050565b6106208161060d565b82525050565b600060208201905061063b6000830184610617565b92915050565b6000604051905090565b600080fd5b600080fd5b61065e8161060d565b811461066957600080fd5b50565b60008135905061067b81610655565b92915050565b6000602082840312156106975761069661064b565b5b60006106a58482850161066c565b91505092915050565b600073ffffffffffffffffffffffffffffffffffffffff82169050919050565b60006106d9826106ae565b9050919050565b6106e9816106ce565b82525050565b600060208201905061070460008301846106e0565b92915050565b610713816106ce565b811461071e57600080fd5b50565b6000813590506107308161070a565b92915050565b60006020828403121561074c5761074b61064b565b5b600061075a84828501610721565b91505092915050565b600081519050919050565b600082825260208201905092915050565b60005b8381101561079d578082015181840152602081019050610782565b838111156107ac576000848401525b50505050565b6000601f19601f8301169050919050565b60006107ce82610763565b6107d8818561076e565b93506107e881856020860161077f565b6107f1816107b2565b840191505092915050565b60006060820190506108116000830186610617565b818103602083015261082381856107c3565b905061083260408301846106e0565b949350505050565b60008115159050919050565b61084f8161083a565b82525050565b600060808201905061086a6000830187610617565b818103602083015261087c81866107c3565b905061088b60408301856106e0565b6108986060830184610846565b95945050505050565b600080fd5b600080fd5b7f4e487b7100000000000000000000000000000000000000000000000000000000600052604160045260246000fd5b6108e3826107b2565b810181811067ffffffffffffffff82111715610902576109016108ab565b5b80604052505050565b6000610915610641565b905061092182826108da565b919050565b600067ffffffffffffffff821115610941576109406108ab565b5b61094a826107b2565b9050602081019050919050565b82818337600083830152505050565b600061097961097484610926565b61090b565b905082815260208101848484011115610995576109946108a6565b5b6109a0848285610957565b509392505050565b600082601f8301126109bd576109bc6108a1565b5b81356109cd848260208601610966565b91505092915050565b6000602082840312156109ec576109eb61064b565b5b600082013567ffffffffffffffff811115610a0a57610a09610650565b5b610a16848285016109a8565b91505092915050565b7f4e487b7100000000000000000000000000000000000000000000000000000000600052602260045260246000fd5b60006002820490506001821680610a6657607f821691505b602082108103610a7957610a78610a1f565b5b50919050565b7f4e487b7100000000000000000000000000000000000000000000000000000000600052601160045260246000fd5b6000610ab98261060d565b91507fffffffffffffffffffffffffffffffffffffffffffffffffffffffffffffffff8203610aeb57610aea610a7f565b5b60018201905091905056fea26469706673582212202b3ba62cd7b4fe336b37cde45dcbfbe29d9a2c21a2d3b1a31ec7644946f1727264736f6c634300080d0033",
  "immutableReferences": {},
  "source": "// SPDX-License-Identifier: MIT\r\npragma solidity >=0.4.22 < 0.9.0;\r\n\r\ncontract Election{\r\n    address manager;\r\n    \r\n    constructor(){\r\n        manager = msg.sender;\r\n    }\r\n  \r\n    struct voter{\r\n        uint id;\r\n        string name;\r\n        address account;\r\n        bool isvoted; \r\n    }\r\n\r\n    uint public votercount;\r\n    address[] public voterList;\r\n    mapping(address => voter) public voters;\r\n\r\n    \r\n    struct candidate{\r\n        uint id;\r\n        string name;\r\n        address account;\r\n    }\r\n\r\n    uint public candidateCount;\r\n    address[] public candidateList;\r\n    mapping(address => candidate) public candidates;\r\n    \r\n    function registerVote(string memory name) public {\r\n        votercount++;\r\n        voters[msg.sender]=voter(votercount,name,msg.sender,false);\r\n        voterList.push(msg.sender);\r\n    }\r\n\r\n    \r\n\r\n\r\n\r\n\r\n\r\n    // function voterDetails() public view returns(uint, string memory,address, bool){\r\n    //     voter memory v = voters[msg.sender];\r\n    //     return(v.id,v.name,v.account,v.isvoted);\r\n    // }\r\n\r\n\r\n    \r\n\r\n    // receive() external payable{\r\n    //     voters.push(payable(msg.sender));\r\n    // }\r\n\r\n    // function getContractAddress() public view returns(address){\r\n    //     return  address(this);\r\n    // }\r\n    // function getbalance(address account) public view returns(uint){\r\n        \r\n    //     return address(account).balance;\r\n    // }\r\n}",
  "sourcePath": "D:\\Project\\Dvote\\truffle\\contracts\\Election.sol",
  "compiler": {
    "name": "solc",
    "version": "0.8.13+commit.abaa5c0e.Emscripten.clang"
  },
  "schemaVersion": "3.4.6",
  "updatedAt": "2022-04-16T18:48:43.276Z",
  "networkType": "ethereum",
  "devdoc": {
    "kind": "dev",
    "methods": {},
    "version": 1
  },
  "userdoc": {
    "kind": "user",
    "methods": {},
    "version": 1
  }
}